:100000000C942A000C943F000C943F000C943F0089
:100010000C943F000C943F000C943F000C943F0064
:100020000C943F000C943F000C943F000C943F0054
:100030000C943F000C943F000C943F000C943F0044
:100040000C943F000C943F000C943F000C943F0034
:100050000C943F0011241FBECFE5D8E0DEBFCDBF1A
:1000600010E0A0E6B0E0E4E3F4E002C005900D92F9
:10007000A636B107D9F70E94FB010C9418020C9424
:100080000000889A899A8A9AD79AD69AD59AD49A49
:100090000895D798D698D598D4980895D79AD69A8F
:1000A000D59AD49A089590980895909A0895919821
:1000B0000895919A089585E08A95F1F70000929A43
:1000C00085E08A95F1F70000929885E08A95F1F72E
:1000D0000000089587FF0CC0DC9A86FF0BC0DD9AF4
:1000E00085FF0AC0DE9A84FF09C0DF9A0C945B008A
:1000F000DC98F3CFDD98F4CFDE98F5CFDF98F6CF1C
:10010000CF93C82F0E946A008C2F8295807FCF9159
:100110000C946A0089B359B349B329B390E034E031
:10012000959587953A95E1F79695982F8827979515
:10013000879530E0220F232F221F330BE4E0220F9C
:10014000331FEA95E1F7822B952F990F9074892B35
:10015000942F96959072892B0895CF93DF930E94E8
:1001600049000E9453000E94590085E08A95F1F7EA
:100170000000929A85E08A95F1F700000E948A00BB
:10018000D82F85E08A95F1F70000929885E08A954E
:10019000F1F70000929A85E08A95F1F700000E943D
:1001A0008A00C82FC295CF70D07FCD2B85E08A956D
:1001B000F1F70000929885E08A95F1F70000C7FDFD
:1001C000D8CF0E944E008C2FDF91CF910895CF930E
:1001D000C82F0E94AD000E9453000E9457008C2F30
:1001E000CF910C948000CF93C82F0E94AD000E9445
:1001F00055000E9457008C2FCF910C9480000E94D4
:1002000041008FE39CE90197F1F700C000008FE304
:100210009CE90197F1F700C000008FE39CE901978A
:10022000F1F700C000008FE39CE90197F1F700C0EF
:1002300000008FE39CE90197F1F700C000000E94E5
:1002400053000E94570080E30E946A008FE19EE401
:100250000197F1F700C0000080E30E946A0087E583
:1002600092E00197F1F700C0000080E30E946A006D
:1002700087E592E00197F1F700C0000080E20E945C
:100280006A0088E20E94E70088E00E94E70081E0BF
:100290000E94E70086E00E94E7008CE00C94E700F3
:1002A000CF93DF93EC018991811103C0DF91CF914E
:1002B00008950E94F300F7CFCF93DF93EC01FE0186
:1002C0008491882321F00E94F3002196F8CFDF91DA
:1002D000CF91089562303CF4611103C080580C94B2
:1002E000E700613011F48054FACF80E8F8CFFC01C8
:1002F00001900020E9F73197E81BF90BE03138F461
:1003000080E190E08E1B910995958795089580E096
:1003100008956F3F11F40C94770180E00895EF92F7
:10032000FF920F931F93CF938C017B01C42FFC018D
:10033000108A40E150E060E270E00E941102C7FFC5
:1003400004C0C7010E947701C82FF7010190002067
:10035000E9F73197EE19FF094E2F4C0F41310CF0A0
:1003600040E1D801AC0FB11DC7FDBA9580E0982FD0
:100370009C0F941734F0CF911F910F91FF90EF9045
:1003800008959701280F311D87FD3A95F901908155
:100390009D938F5FECCFFF920F931F93CF93DF93CB
:1003A000CDB7DEB761970FB6F894DEBF0FBECDBFF5
:1003B0008C01F42E41E150E0CE0101960E94020230
:1003C000198A4F2DBE016F5F7F4FC8010E948F01B8
:1003D00061960FB6F894DEBF0FBECDBFDF91CF910F
:1003E0001F910F91FF900895FC018EE2858786870B
:1003F0008787108A08950E94FF0080E690E00E949F
:100400005001FFCFFB01DC014150504048F0059006
:100410000D920020C9F701C01D9241505040E0F7F5
:100420000895DC0101C06D9341505040E0F70895FC
:04043000F894FFCF6E
:06043400686F6C6100001E
:00000001FF
