:100000000C942A000C943F000C943F000C943F0089
:100010000C943F000C943F000C943F000C943F0064
:100020000C943F000C943F000C943F000C943F0054
:100030000C943F000C943F000C943F000C943F0044
:100040000C943F000C943F000C943F000C943F0034
:100050000C943F0011241FBECFE5D8E0DEBFCDBF1A
:1000600010E0A0E6B0E0E2E0F8E402C005900D92F6
:10007000A636B107D9F70E944F220C94FF230C94A7
:100080000000CF93DF93CDB7DEB784E390E0FC01AF
:10009000208184E390E02064FC01208384E390E0ED
:1000A000FC01208184E390E02062FC01208384E352
:1000B00090E0FC01208184E390E02068FC01208333
:1000C0008AE390E0FC0120818AE390E02068FC0153
:1000D00020838AE390E0FC0120818AE390E02064A1
:1000E000FC0120838AE390E0FC0120818AE390E018
:1000F0002062FC0120838AE390E0FC0120818AE3F6
:1001000090E02061FC0120830000DF91CF910895F1
:10011000CF93DF93CDB7DEB78AE390E0FC01208177
:100120008AE390E02F77FC0120838AE390E0FC01D2
:1001300020818AE390E02F7BFC0120838AE390E01A
:10014000FC0120818AE390E02F7DFC0120838AE37B
:1001500090E0FC0120818AE390E02F7EFC01208367
:100160000000DF91CF910895CF93DF93CDB7DEB735
:100170008AE390E0FC0120818AE390E02068FC01A2
:1001800020838AE390E0FC0120818AE390E02064F0
:10019000FC0120838AE390E0FC0120818AE390E067
:1001A0002062FC0120838AE390E0FC0120818AE345
:1001B00090E02061FC0120830000DF91CF91089541
:1001C000CF93DF93CDB7DEB785E390E0FC012081CC
:1001D00085E390E02F7BFC0120830000DF91CF912D
:1001E0000895CF93DF93CDB7DEB785E390E0FC01B0
:1001F000208185E390E02064FC0120830000DF91F2
:10020000CF910895CF93DF93CDB7DEB785E390E02C
:10021000FC01208185E390E02F7DFC01208300001C
:10022000DF91CF910895CF93DF93CDB7DEB785E30C
:1002300090E0FC01208185E390E02062FC012083B6
:100240000000DF91CF9108950F931F93CF93DF9319
:10025000CDB7DEB7C85DD1090FB6F894DEBF0FBECB
:10026000CDBF9E012F5B3F4F80E090E0A0E8BFE351
:10027000F90180839183A283B3838E010B5B1F4FAF
:10028000CE018F5B9F4F2BEA3AEA4AEA50E4DC0149
:100290006D917D918D919C910E947A23E1966CAF36
:1002A0007DAF8EAF9FAFE197E1968CAD9DADAEADCA
:1002B000BFADE197F80180839183A283B3838E0160
:1002C000075B1F4FCE018F5B9F4F20E030E040E87F
:1002D00050E4DC016D917D918D919C910E947A2377
:1002E000E5966CAF7DAF8EAF9FAFE597E5968CAD91
:1002F0009DADAEADBFADE597F80180839183A2833C
:10030000B383CE018B5B9F4F20E030E040E85FE39A
:10031000DC016D917D918D919C910E945A228823E0
:100320003CF4CE01835B9F4F21E0FC0120838DC113
:10033000CE01875B9F4F20E03FEF4FE757E4DC01A2
:100340006D917D918D919C910E94752318160CF0F2
:1003500016C1CE018F5B9F4F20E030E04AE754E4A6
:10036000FC0160817181828193810E945F22E99604
:100370006CAF7DAF8EAF9FAFE997E9968CAD9DAD29
:10038000AEADBFADE9979E01225B3F4FF90180837F
:100390009183A283B3838E010E5A1F4FCE01825BDD
:1003A0009F4F20E030E04AE755E4DC016D917D91FC
:1003B0008D919C910E947A23ED966CAF7DAF8EAFAC
:1003C0009FAFED97ED968CAD9DADAEADBFADED970A
:1003D000F80180839183A283B383CE018E5A9F4F0D
:1003E00020E030E040E85FE3DC016D917D918D918C
:1003F0009C910E945A2288234CF4CE018A5A9F4F26
:1004000021E030E0FC01318320839EC0CE018E5A72
:100410009F4F20E03FEF4FE757E4DC016D917D9166
:100420008D919C910E94752318160CF06FC0CE011F
:10043000825B9F4F20E030E040E251E4FC016081AC
:100440007181828193810E947A23C358DF4F688330
:1004500079838A839B83CD57D040C358DF4F8881EF
:100460009981AA81BB81CD57D040AD968CAF9DAF0D
:10047000AEAFBFAFAD978E010A5A1F4FAD966CADB0
:100480007DAD8EAD9FADAD970E94D122CF57DF4F8E
:10049000688379838A839B83C158D040CF57DF4FCD
:1004A000E881F981C158D040D801ED93FC9325C073
:1004B000CE01885A9F4F20E931E0DC012D933C9317
:1004C000CE01885A9F4FFC01808191810197F1F7FD
:1004D0009E01285A3F4FD9018D939C930000CE0175
:1004E0008A5A9F4F9E012A5A3F4FF901208131813C
:1004F00021503109DC012D933C93CE018A5A9F4F44
:10050000FC0180819181892B99F69FC08E010A5A46
:100510001F4FCE018E5A9F4FDC016D917D918D91C1
:100520009C910E94D122CB57DF4F688379838A83C5
:100530009B83C558D040CB57DF4F88819981C558E0
:10054000D040F80191838083CE01865A9F4F9E014F
:100550002A5A3F4FD9012D913C91FC0131832083D0
:10056000CE01865A9F4FDC018D919C910197F1F746
:100570009E01265A3F4FF9019183808366C0CE01C8
:100580008B5B9F4F20E030E04FE753E4DC016D913F
:100590007D918D919C910E9475231816D4F58E0142
:1005A000045A1F4FCE01875B9F4FFC016081718110
:1005B000828193810E94D122C757DF4F688379835C
:1005C0008A839B83C958D040C757DF4FE881F981A0
:1005D000C958D040D801ED93FC93CE01825A9F4F69
:1005E0009E01245A3F4FD9012D913C91FC0131834A
:1005F0002083CE01825A9F4FDC018D919C910197FF
:10060000F1F79E01225A3F4FF90191838083000048
:1006100034C08E01035B1F4FCE018B5B9F4FDC010B
:100620006D917D918D919C910E94D122C357DF4F96
:10063000688379838A839B83CD58D040C357DF4F2B
:100640008881CD58D040F8018083CE01805A9F4FD9
:100650009E01235B3F4FD9012C91FC012083CE01E9
:10066000805A9F4FDC018C91282F2A95F1F7CE01FB
:10067000805A9F4FFC012083000085E390E0DC015D
:100680002C9185E390E02068FC01208380E090E0DD
:10069000A0E8BFE389A39AA3ABA3BCA32BEA3AEAE1
:1006A0004AEA50E469A17AA18BA19CA10E947A2315
:1006B000CF56DF4F688379838A839B83C159D040AB
:1006C000CF56DF4F88819981AA81BB81C159D04023
:1006D0008DA39EA3AFA3B8A720E030E040E850E48C
:1006E00069A17AA18BA19CA10E947A23CB56DF4FEE
:1006F000688379838A839B83C559D040CB56DF4F6B
:1007000088819981AA81BB81C559D04089A79AA7C0
:10071000ABA7BCA720E030E040E85FE36DA17EA17D
:100720008FA198A50E945A2288231CF481E08DA7EE
:1007300018C120E03FEF4FE757E469A57AA58BA5E4
:100740009CA50E94752318160CF0C9C020E030E06B
:100750004AE754E469A17AA18BA19CA10E945F227F
:10076000C756DF4F688379838A839B83C959D040FA
:10077000C756DF4F88819981AA81BB81C959D04072
:100780008EA79FA7A8ABB9AB20E030E04AE755E4BD
:100790006EA57FA588A999A90E947A23C356DF4F29
:1007A000688379838A839B83CD59D040C356DF4FBA
:1007B00088819981AA81BB81CD59D0408AAB9BABFE
:1007C000ACABBDAB20E030E040E85FE36AA97BA9B9
:1007D0008CA99DA90E945A2288232CF481E090E0E4
:1007E0009FAB8EAB71C020E03FEF4FE757E46AA9A3
:1007F0007BA98CA99DA90E94752318160CF04EC0E8
:1008000020E030E040E251E46EA57FA588A999A9D7
:100810000E947A23CF55DF4F688379838A839B8335
:10082000C15AD040CF55DF4F88819981AA81BB81C1
:10083000C15AD040A9968CAF9DAFAEAFBFAFA997BC
:10084000A9966CAD7DAD8EAD9FADA9970E94D122CA
:10085000CB55DF4F688379838A839B83C55AD04009
:10086000CB55DF4FA881B981C55AD040BFABAEABE5
:1008700010C080E991E099AF88AF88AD99AD01973C
:10088000F1F799AF88AF00008EA99FA901979FABA0
:100890008EAB8EA99FA9892B61F763C06AA97BA93A
:1008A0008CA99DA90E94D122C755DF4F6883798307
:1008B0008A839B83C95AD040C755DF4FE881F981AD
:1008C000C95AD040FFABEEAB8EA99FA99BAF8AAFB0
:1008D0008AAD9BAD0197F1F79BAF8AAF42C020E094
:1008E00030E04FE753E46DA17EA18FA198A50E944F
:1008F0007523181614F569A57AA58BA59CA50E94E9
:10090000D122C355DF4F688379838A839B83CD5A75
:10091000D040C355DF4F88819981CD5AD0409DAFDB
:100920008CAF8CAD9DAD9FAF8EAF8EAD9FAD01975F
:10093000F1F79FAF8EAF000028C06DA17EA18FA1FF
:1009400098A50E94D122CF54DF4F688379838A8390
:100950009B83C15BD040CF54DF4F9881C15BD040B7
:100960009DA72DA5CE01805C9F4FDC012C93CE016D
:10097000805C9F4FFC018081282F2A95F1F7CE01E2
:10098000805C9F4FDC012C93000085E390E0FC012C
:10099000208185E390E02F77DC012C9380E090E0CC
:1009A000A0E8BFE389839A83AB83BC832BEA3AEA4E
:1009B0004AEA50E469817A818B819C810E947A2382
:1009C000CB54DF4F688379838A839B83C55BD04098
:1009D000CB54DF4F88819981AA81BB81C55BD04010
:1009E0008D839E83AF83B88720E030E040E850E4F9
:1009F00069817A818B819C810E947A23C754DF4F61
:100A0000688379838A839B83C95BD040C754DF4F57
:100A100088819981AA81BB81C95BD04089879A87E7
:100A2000AB87BC8720E030E040E85FE36D817E81EA
:100A30008F8198850E945A2288231CF481E08D873B
:100A400018C120E03FEF4FE757E469857A858B8531
:100A50009C850E94752318160CF0C9C020E030E078
:100A60004AE754E469817A818B819C810E945F22EC
:100A7000C354DF4F688379838A839B83CD5BD040E7
:100A8000C354DF4F88819981AA81BB81CD5BD0405F
:100A90008E879F87A88BB98B20E030E04AE755E42A
:100AA0006E857F85888999890E947A23CF53DF4F8D
:100AB000688379838A839B83C15CD040CF53DF4FA7
:100AC00088819981AA81BB81C15CD0408A8B9B8B34
:100AD000AC8BBD8B20E030E040E85FE36A897B8926
:100AE0008C899D890E945A2288232CF481E090E011
:100AF0009F8B8E8B71C020E03FEF4FE757E46A89F0
:100B00007B898C899D890E94752318160CF04EC034
:100B100020E030E040E251E46E857F858889998944
:100B20000E947A23CB53DF4F688379838A839B8328
:100B3000C55CD040CB53DF4F88819981AA81BB81AE
:100B4000C55CD040A5968CAF9DAFAEAFBFAFA597AB
:100B5000A5966CAD7DAD8EAD9FADA5970E94D122BF
:100B6000C753DF4F688379838A839B83C95CD040F6
:100B7000C753DF4FA881B981C95CD040BF8BAE8B12
:100B800010C080E991E0998F888F888D998D0197A9
:100B9000F1F7998F888F00008E899F8901979F8B2D
:100BA0008E8B8E899F89892B61F763C06A897B89C7
:100BB0008C899D890E94D122C353DF4F688379833A
:100BC0008A839B83CD5CD040C353DF4FE881F9819A
:100BD000CD5CD040FF8BEE8B8E899F899B8F8A8F57
:100BE0008A8D9B8D0197F1F79B8F8A8F42C020E001
:100BF00030E04FE753E46D817E818F8198850E94BC
:100C00007523181614F569857A858B859C850E9455
:100C1000D122CF52DF4F688379838A839B83C15D62
:100C2000D040CF52DF4F88819981C15DD0409D8FE8
:100C30008C8F8C8D9D8D9F8F8E8F8E8D9F8D01972C
:100C4000F1F79F8F8E8F00001BC06D817E818F8199
:100C500098850E94D122CB52DF4F688379838A83A3
:100C60009B83C55DD040CB52DF4F9881C55DD0409E
:100C70009D878D8588A388A18A95F1F788A30000B8
:100C80000000C852DF4F0FB6F894DEBF0FBECDBFD5
:100C9000DF91CF911F910F910895CF93DF930F9222
:100CA000CDB7DEB789838981882354F48BE390E044
:100CB000FC0120818BE390E02061FC01208309C0CE
:100CC0008BE390E0FC0120818BE390E02F7EFC0120
:100CD00020838981882F90E080749927892B51F097
:100CE0008BE390E0FC0120818BE390E02062FC012B
:100CF000208309C08BE390E0FC0120818BE390E02E
:100D00002F7DFC0120838981882F90E080729927B4
:100D1000892B51F08BE390E0FC0120818BE390E084
:100D20002064FC01208309C08BE390E0FC0120815A
:100D30008BE390E02F7BFC0120838981882F90E05A
:100D400080719927892B51F08BE390E0FC01208181
:100D50008BE390E02068FC01208309C08BE390E0E6
:100D6000FC0120818BE390E02F77FC0120830E941F
:100D7000240100000F90DF91CF910895CF93DF936E
:100D80000F92CDB7DEB7898389810E944D06898194
:100D90008295807F0E944D0600000F90DF91CF91D9
:100DA0000895CF93DF93CDB7DEB789E390E0FC01E0
:100DB0008081882F90E09595879595958795959555
:100DC0008795959587959695982F882797958795D8
:100DD000282F207889E390E0FC018081882F90E023
:100DE00095958795959587959595879595958795EB
:100DF0009595879500249695879507949695879560
:100E00000794982F802D8074282B89E390E0FC01B3
:100E10008081882F90E0082E892F000C881F990B65
:100E2000000C881F991F880F991F82959295907FBB
:100E30009827807F98278072282B89E390E0FC0117
:100E40008081882F90E0880F892F881F990B8295C9
:100E50009295907F9827807F98278071822BDF91D1
:100E6000CF9108950F931F93CF93DF93CDB7DEB744
:100E7000C252D1400FB6F894DEBF0FBECDBF0E9464
:100E800088000E94E0000E94130180E090E0A0E84A
:100E9000BFE38B839C83AD83BE832BEA3AEA4AEAA5
:100EA00050E46B817C818D819E810E947A23CD5696
:100EB000DF4F688379838A839B83C359D040CD56A3
:100EC000DF4F88819981AA81BB81C359D0408F832C
:100ED0009887A987BA8720E030E040E850E46B812A
:100EE0007C818D819E810E947A23C956DF4F688361
:100EF00079838A839B83C759D040C956DF4F888145
:100F00009981AA81BB81C759D0408B879C87AD87C7
:100F1000BE8720E030E040E85FE36F817885898517
:100F20009A850E945A2288231CF481E08F871CC175
:100F300020E03FEF4FE757E46B857C858D859E85EC
:100F40000E94752318160CF0CDC020E030E04AE76F
:100F500054E46B817C818D819E810E945F22C55605
:100F6000DF4F688379838A839B83CB59D040C556F2
:100F7000DF4F88819981AA81BB81CB59D040888B72
:100F8000998BAA8BBB8B20E030E04AE755E4688957
:100F900079898A899B890E947A23C156DF4F6883A9
:100FA00079838A839B83CF59D040C156DF4F888194
:100FB0009981AA81BB81CF59D0408C8B9D8BAE8B00
:100FC000BF8B20E030E040E85FE36C897D898E894B
:100FD0009F890E945A2288232CF481E090E0998F07
:100FE000888F75C020E03FEF4FE757E46C897D891B
:100FF0008E899F890E94752318160CF052C020E03C
:1010000030E040E251E4688979898A899B890E94AD
:101010007A23CD55DF4F688379838A839B83C35AB4
:10102000D040CD55DF4F88819981AA81BB81C35AB9
:10103000D040CD57DF4F88839983AA83BB83C358A1
:10104000D040CD57DF4F688179818A819B81C35819
:10105000D0400E94D122C955DF4F688379838A83AB
:101060009B83C75AD040C955DF4FA881B981C75A61
:10107000D040B98FA88F10C080E991E09B8F8A8FF4
:101080008A8D9B8D0197F1F79B8F8A8F0000888D49
:10109000998D0197998F888F888D998D892B61F70C
:1010A00063C06C897D898E899F890E94D122C55534
:1010B000DF4F688379838A839B83CB5AD040C555A1
:1010C000DF4FE881F981CB5AD040F98FE88F888DC6
:1010D000998D9D8F8C8F8C8D9D8D0197F1F79D8FB4
:1010E0008C8F42C020E030E04FE753E46F81788579
:1010F00089859A850E947523181614F56B857C8561
:101100008D859E850E94D122C155DF4F68837983EA
:101110008A839B83CF5AD040C155DF4F8881998104
:10112000CF5AD0409F8F8E8F8E8D9F8D99A388A38D
:1011300088A199A10197F1F799A388A300001BC08A
:101140006F81788589859A850E94D122CD54DF4FA1
:10115000688379838A839B83C35BD040CD54DF4F00
:101160009881C35BD0409F878F858AA38AA18A9587
:10117000F1F78AA300001A82F6C585E390E0DC014E
:101180002C9185E390E02068FC01208380E090E0D2
:10119000A0E8BFE38BA39CA3ADA3BEA32BEA3AEACE
:1011A0004AEA50E46BA17CA18DA19EA10E947A2302
:1011B000C954DF4F688379838A839B83C75BD040A0
:1011C000C954DF4F88819981AA81BB81C75BD04018
:1011D0008FA398A7A9A7BAA720E030E040E850E481
:1011E0006BA17CA18DA19EA10E947A23C554DF4FE3
:1011F000688379838A839B83CB5BD040C554DF4F60
:1012000088819981AA81BB81CB5BD0408BA79CA7A9
:10121000ADA7BEA720E030E040E85FE36FA178A56E
:1012200089A59AA50E945A2288231CF481E08FA7E1
:1012300028C120E03FEF4FE757E46BA57CA58DA5C3
:101240009EA50E94752318160CF0CDC020E030E05A
:101250004AE754E46BA17CA18DA19EA10E945F226C
:10126000C154DF4F688379838A839B83CF5BD040EF
:10127000C154DF4F88819981AA81BB81CF5BD04067
:1012800088AB99ABAAABBBAB20E030E04AE755E4B2
:1012900068A979A98AA99BA90E947A23CD53DF4F17
:1012A000688379838A839B83C35CD040CD53DF4FAF
:1012B00088819981AA81BB81C35CD0408CAB9DABF6
:1012C000AEABBFAB20E030E040E85FE36CA97DA9A6
:1012D0008EA99FA90E945A2288232CF481E090E0D5
:1012E00099AF88AF75C020E03FEF4FE757E46CA996
:1012F0007DA98EA99FA90E94752318160CF052C0D3
:1013000020E030E040E251E468A979A98AA99BA9CC
:101310000E947A23C953DF4F688379838A839B8332
:10132000C75CD040C953DF4F88819981AA81BB81B6
:10133000C75CD040C957DF4F88839983AA83BB839A
:10134000C758D040C957DF4F688179818A819B8116
:10135000C758D0400E94D122C553DF4F688379839C
:101360008A839B83CB5CD040C553DF4FA881B98172
:10137000CB5CD040B9AFA8AF10C080E991E09BAF83
:101380008AAF8AAD9BAD0197F1F79BAF8AAF0000A2
:1013900088AD99AD019799AF88AF88AD99AD892B8C
:1013A00061F76FC06CA97DA98EA99FA90E94D12267
:1013B000C153DF4F688379838A839B83CF5CD0409E
:1013C000C153DF4FE881F981CF5CD040F9AFE8AF7E
:1013D00088AD99AD9DAF8CAF8CAD9DAD0197F1F708
:1013E0009DAF8CAF4EC020E030E04FE753E46FA1DB
:1013F00078A589A59AA50E947523181674F56BA582
:101400007CA58DA59EA50E94D122CD52DF4F688379
:1014100079838A839B83C35DD040CD52DF4F88811F
:101420009981C35DD0409FAF8EAFCE01805C9F4F4E
:101430002EAD3FADDC012D933C93CE01805C9F4FE0
:10144000FC01808191810197F1F79E01205C3F4F63
:10145000D9018D939C93000028C06FA178A589A520
:101460009AA50E94D122C952DF4F688379838A836B
:101470009B83C75DD040C952DF4FB881C75DD04064
:10148000BFA7CE018E5B9F4F2FA5FC012083CE010D
:101490008E5B9F4FDC018C91282F2A95F1F7CE01AE
:1014A0008E5B9F4FFC01208300008A81882329F4F2
:1014B0000E94D106807F89830AC00E94D10682954E
:1014C0008F70882F90E0982F8981892B89839E01C6
:1014D0002D593F4F80E090E0A0E8BFE3F901808301
:1014E0009183A283B3838E0109591F4FCE018D5979
:1014F0009F4F2BEA3AEA4AEA50E4DC016D917D9174
:101500008D919C910E947A23C552DF4F6883798325
:101510008A839B83CB5DD040C552DF4F8881998100
:10152000AA81BB81CB5DD040F80180839183A283E7
:10153000B3838E0105591F4FCE018D599F4F20E077
:1015400030E040E850E4DC016D917D918D919C91FB
:101550000E947A23C152DF4F688379838A839B83F9
:10156000CF5DD040C152DF4F88819981AA81BB8174
:10157000CF5DD040F80180839183A283B383CE01F5
:1015800089599F4F20E030E040E85FE3DC016D9136
:101590007D918D919C910E945A2288233CF4CE012A
:1015A00081599F4F21E0FC01208399C1CE018559CB
:1015B0009F4F20E03FEF4FE757E4DC016D917D91B5
:1015C0008D919C910E94752318160CF022C1CE01BA
:1015D0008D599F4F20E030E04AE754E4FC016081E0
:1015E0007181828193810E945F22CD51DF4F688398
:1015F00079838A839B83C35ED040CD51DF4F88813E
:101600009981AA81BB81C35ED0409E0120593F4F82
:10161000F90180839183A283B3838E010C581F4FFD
:10162000CE0180599F4F20E030E04AE755E4DC01CD
:101630006D917D918D919C910E947A23C951DF4FCC
:10164000688379838A839B83C75ED040C951DF4F0B
:1016500088819981AA81BB81C75ED040F8018083CF
:101660009183A283B383CE018C589F4F20E030E05A
:1016700040E85FE3DC016D917D918D919C910E942A
:101680005A2288234CF4CE0188589F4F21E030E045
:10169000FC0131832083A2C0CE018C589F4F20E0F3
:1016A0003FEF4FE757E4DC016D917D918D919C9167
:1016B0000E94752318160CF073C0CE0180599F4FFD
:1016C00020E030E040E251E4FC01608171818281E0
:1016D00093810E947A23C551DF4F688379838A837F
:1016E0009B83CB5ED040C551DF4F88819981AA8111
:1016F000BB81CB5ED040C157DF4F88839983AA83DB
:10170000BB83CF58D0408E0108581F4FC157DF4FC1
:10171000688179818A819B81CF58D0400E94D122F3
:10172000C151DF4F688379838A839B83CF5ED0402A
:10173000C151DF4FE881F981CF5ED040D801ED93F0
:10174000FC9325C0CE0186589F4F20E931E0DC0193
:101750002D933C93CE0186589F4FFC01808191814F
:101760000197F1F79E0126583F4FD9018D939C9325
:101770000000CE0188589F4F9E0128583F4FF90125
:101780002081318121503109DC012D933C93CE0120
:1017900088589F4FFC0180819181892B99F69FC0C9
:1017A0008E0108581F4FCE018C589F4FDC016D9160
:1017B0007D918D919C910E94D122CD50DF4F688305
:1017C00079838A839B83C35FD040CD50DF4F88816C
:1017D0009981C35FD040F80191838083CE01845802
:1017E0009F4F9E0128583F4FD9012D913C91FC01FC
:1017F00031832083CE0184589F4FDC018D919C91D1
:101800000197F1F79E0124583F4FF901918380839E
:1018100066C0CE0189599F4F20E030E04FE753E486
:10182000DC016D917D918D919C910E94752318161C
:10183000D4F58E0102581F4FCE0185599F4FFC01F0
:1018400060817181828193810E94D122C950DF4FD2
:10185000688379838A839B83C75FD040C950DF4FF9
:10186000E881F981C75FD040D801ED93FC93CE01A8
:1018700080589F4F9E0122583F4FD9012D913C9196
:10188000FC0131832083CE0180589F4FDC018D9174
:101890009C910197F1F79E0120583F4FF9019183E8
:1018A0008083000034C08E0101591F4FCE01895939
:1018B0009F4FDC016D917D918D919C910E94D12271
:1018C000C550DF4F688379838A839B83CB5FD04089
:1018D000C550DF4F8881CB5FD040F8018083CE01B7
:1018E0008E579F4F9E0121593F4FD9012C91FC01EA
:1018F0002083CE018E579F4FDC018C91282F2A9593
:10190000F1F7CE018E579F4FFC012083000085E345
:1019100090E0DC012C9185E390E02F77FC0120839F
:101920009E012D5B3F4F80E090E0A0E8BFE3F9010E
:1019300080839183A283B3838E01095B1F4FCE0105
:101940008D5B9F4F2BEA3AEA4AEA50E4DC016D9145
:101950007D918D919C910E947A23C150DF4F6883C5
:1019600079838A839B83CF5FD040C150DF4F8881CA
:101970009981AA81BB81CF5FD040F8018083918398
:10198000A283B3838E01055B1F4FCE018D5B9F4FFA
:1019900020E030E040E850E4DC016D917D918D91D4
:1019A0009C910E947A23CD5FDE4F688379838A837E
:1019B0009B83C350D140CD5FDE4F88819981AA813E
:1019C000BB81C350D140F80180839183A283B3834C
:1019D000CE01895B9F4F20E030E040E85FE3DC010F
:1019E0006D917D918D919C910E945A2288233CF4A7
:1019F000CE01815B9F4F21E0FC01208399C1CE0184
:101A0000855B9F4F20E03FEF4FE757E4DC016D918E
:101A10007D918D919C910E94752318160CF022C126
:101A2000CE018D5B9F4F20E030E04AE754E4FC019B
:101A300060817181828193810E945F22C95FDE4F44
:101A4000688379838A839B83C750D140C95FDE4F07
:101A500088819981AA81BB81C750D1409E01205BBA
:101A60003F4FF90180839183A283B3838E010C5A87
:101A70001F4FCE01805B9F4F20E030E04AE755E4E6
:101A8000DC016D917D918D919C910E947A23C55FBF
:101A9000DE4F688379838A839B83CB50D140C55FB7
:101AA000DE4F88819981AA81BB81CB50D140F8015A
:101AB00080839183A283B383CE018C5A9F4F20E011
:101AC00030E040E85FE3DC016D917D918D919C9168
:101AD0000E945A2288234CF4CE01885A9F4F21E05D
:101AE00030E0FC0131832083A2C0CE018C5A9F4F8D
:101AF00020E03FEF4FE757E4DC016D917D918D9140
:101B00009C910E94752318160CF073C0CE01805B67
:101B10009F4F20E030E040E251E4FC0160817181A0
:101B2000828193810E947A23C15FDE4F688379832B
:101B30008A839B83CF50D140C15FDE4F88819981DA
:101B4000AA81BB81CF50D140C557DF4F888399838D
:101B5000AA83BB83CB58D0408E01085A1F4FC5576C
:101B6000DF4F688179818A819B81CB58D0400E9468
:101B7000D122CD5EDE4F688379838A839B83C351F4
:101B8000D140CD5EDE4FE881F981C351D140D8010B
:101B9000ED93FC9325C0CE01865A9F4F20E931E09A
:101BA000DC012D933C93CE01865A9F4FFC0180812E
:101BB00091810197F1F79E01265A3F4FD9018D93EC
:101BC0009C930000CE01885A9F4F9E01285A3F4F98
:101BD000F9012081318121503109DC012D933C93A1
:101BE000CE01885A9F4FFC0180819181892B99F603
:101BF0009FC08E01085A1F4FCE018C5A9F4FDC01A7
:101C00006D917D918D919C910E94D122C95EDE4F94
:101C1000688379838A839B83C751D140C95EDE4F35
:101C200088819981C751D140F80191838083CE0189
:101C3000845A9F4F9E01285A3F4FD9012D913C91C4
:101C4000FC0131832083CE01845A9F4FDC018D91AA
:101C50009C910197F1F79E01245A3F4FF90191831E
:101C6000808366C0CE01895B9F4F20E030E04FE764
:101C700053E4DC016D917D918D919C910E947523BF
:101C80001816D4F58E01025A1F4FCE01855B9F4F67
:101C9000FC0160817181828193810E94D122C55EA5
:101CA000DE4F688379838A839B83CB51D140C55EA5
:101CB000DE4FE881F981CB51D140D801ED93FC93FF
:101CC000CE01805A9F4F9E01225A3F4FD9012D913C
:101CD0003C91FC0131832083CE01805A9F4FDC016F
:101CE0008D919C910197F1F79E01205A3F4FF90188
:101CF00091838083000034C08E01015B1F4FCE01B1
:101D0000895B9F4FDC016D917D918D919C910E942B
:101D1000D122C15EDE4F688379838A839B83CF5152
:101D2000D140C15EDE4F8881CF51D140F801808320
:101D3000CE018E599F4F9E01215B3F4FD9012C91BF
:101D4000FC012083CE018E599F4FDC018C91282FFE
:101D50002A95F1F7CE018E599F4FFC012083000098
:101D60008A818F5F8A838A81823008F406CA8981DA
:101D700088230CF400CA0E94B4008981CE5DDE4F36
:101D80000FB6F894DEBF0FBECDBFDF91CF911F918C
:101D90000F910895CF93DF930F92CDB7DEB789836C
:101DA0000E9432070E94E0000E94020189810E9485
:101DB000BE0600000F90DF91CF910895CF93DF937F
:101DC0000F92CDB7DEB789830E9432070E94F100DF
:101DD0000E94020189810E94BE0600000F90DF91DF
:101DE000CF9108950F931F93CF93DF93CDB7DEB7B5
:101DF000CC57D2400FB6F894DEBF0FBECDBF0E94C5
:101E000041009E01295F3E4F80E090E0A0E2B1E4F6
:101E1000F90180839183A283B3838E01055F1E4FF6
:101E2000CE01895F9E4F20E030E04AE755E4DC01B7
:101E30006D917D918D919C910E947A23CB5BDE4FB9
:101E4000688379838A839B83C554D140CB5BDE4F03
:101E500088819981AA81BB81C554D140F8018083D2
:101E60009183A283B383CE01855F9E4F20E030E053
:101E700040E85FE3DC016D917D918D919C910E9422
:101E80005A2288234CF4CE01815F9E4F21E030E03E
:101E9000FC0131832083A2C0CE01855F9E4F20E0EC
:101EA0003FEF4FE757E4DC016D917D918D919C915F
:101EB0000E94752318160CF073C0CE01895F9E4FE7
:101EC00020E030E040E251E4FC01608171818281D8
:101ED00093810E947A23C75BDE4F688379838A836C
:101EE0009B83C954D140C75BDE4F88819981AA8109
:101EF000BB81C954D140CF5BDE4F88839983AA83CD
:101F0000BB83C154D1408E01015F1E4FCF5BDE4FBA
:101F1000688179818A819B81C154D1400E94D122FC
:101F2000C35BDE4F688379838A839B83CD54D14022
:101F3000C35BDE4FE881F981CD54D140D801ED93E8
:101F4000FC9325C0CE018F5E9E4F20E931E0DC017D
:101F50002D933C93CE018F5E9E4FFC018081918139
:101F60000197F1F79E012F5E3E4FD9018D939C930F
:101F70000000CE01815F9E4F9E01215F3E4FF9011F
:101F80002081318121503109DC012D933C93CE0118
:101F9000815F9E4FFC0180819181892B99F639C028
:101FA0008E01015F1E4FCE01855F9E4FDC016D915A
:101FB0007D918D919C910E94D122CF5ADE4F6883F2
:101FC00079838A839B83C155D140CF5ADE4F888164
:101FD0009981C155D140F80191838083CE018D5EF6
:101FE0009E4F9E01215F3E4FD9012D913C91FC01F6
:101FF00031832083CE018D5E9E4FDC018D919C91BB
:102000000197F1F79E012D5E3E4FF9019183808388
:1020100000009E0127503F4F80E090E0A0E2B1E435
:10202000F90180839183A283B3838E0103501F4FF4
:10203000CE0187509F4F20E030E04AE755E4DC01B5
:102040006D917D918D919C910E947A23CB5ADE4FA8
:10205000688379838A839B83C555D140CB5ADE4FF1
:1020600088819981AA81BB81C555D140F8018083BF
:102070009183A283B383CE0183509F4F20E030E051
:1020800040E85FE3DC016D917D918D919C910E9410
:102090005A2288234CF4CE018F5F9E4F21E030E01E
:1020A000FC0131832083A2C0CE0183509F4F20E0EA
:1020B0003FEF4FE757E4DC016D917D918D919C914D
:1020C0000E94752318160CF073C0CE0187509F4FE5
:1020D00020E030E040E251E4FC01608171818281C6
:1020E00093810E947A23C75ADE4F688379838A835B
:1020F0009B83C955D140C75ADE4F88819981AA81F7
:10210000BB81C955D140C35CDE4F88839983AA83C4
:10211000BB83CD53D1408E010F5F1E4FC35CDE4F9A
:10212000688179818A819B81CD53D1400E94D122DF
:10213000C35ADE4F688379838A839B83CD55D14010
:10214000C35ADE4FE881F981CD55D140D801ED93D6
:10215000FC9325C0CE018D5F9E4F20E931E0DC016C
:102160002D933C93CE018D5F9E4FFC018081918128
:102170000197F1F79E012D5F3E4FD9018D939C93FE
:102180000000CE018F5F9E4F9E012F5F3E4FF901F1
:102190002081318121503109DC012D933C93CE0106
:1021A0008F5F9E4FFC0180819181892B99F639C008
:1021B0008E010F5F1E4FCE0183509F4FDC016D914A
:1021C0007D918D919C910E94D122CF59DE4F6883E1
:1021D00079838A839B83C156D140CF59DE4F888152
:1021E0009981C156D140F80191838083CE018B5FE4
:1021F0009E4F9E012F5F3E4FD9012D913C91FC01D6
:1022000031832083CE018B5F9E4FDC018D919C91A9
:102210000197F1F79E012B5F3E4FF9019183808377
:1022200000009E0125513F4F80E090E0A0E2B1E424
:10223000F90180839183A283B3838E0101511F4FE3
:10224000CE0185519F4F20E030E04AE755E4DC01A4
:102250006D917D918D919C910E947A23CB59DE4F97
:10226000688379838A839B83C556D140CB59DE4FDF
:1022700088819981AA81BB81C556D140F8018083AC
:102280009183A283B383CE0181519F4F20E030E040
:1022900040E85FE3DC016D917D918D919C910E94FE
:1022A0005A2288234CF4CE018D509F4F21E030E01C
:1022B000FC0131832083A2C0CE0181519F4F20E0D9
:1022C0003FEF4FE757E4DC016D917D918D919C913B
:1022D0000E94752318160CF073C0CE0185519F4FD4
:1022E00020E030E040E251E4FC01608171818281B4
:1022F00093810E947A23C759DE4F688379838A834A
:102300009B83C956D140C759DE4F88819981AA81E4
:10231000BB81C956D140C75CDE4F88839983AA83AD
:10232000BB83C953D1408E010D501F4FC75CDE4F98
:10233000688179818A819B81C953D1400E94D122D1
:10234000C359DE4F688379838A839B83CD56D140FE
:10235000C359DE4FE881F981CD56D140D801ED93C4
:10236000FC9325C0CE018B509F4F20E931E0DC016A
:102370002D933C93CE018B509F4FFC018081918126
:102380000197F1F79E012B503F4FD9018D939C93FC
:102390000000CE018D509F4F9E012D503F4FF901FF
:1023A0002081318121503109DC012D933C93CE01F4
:1023B0008D509F4FFC0180819181892B99F639C006
:1023C0008E010D501F4FCE0181519F4FDC016D9149
:1023D0007D918D919C910E94D122CF58DE4F6883D0
:1023E00079838A839B83C157D140CF58DE4F888140
:1023F0009981C157D140F80191838083CE018950E2
:102400009F4F9E012D503F4FD9012D913C91FC01D2
:1024100031832083CE0189509F4FDC018D919C91A7
:102420000197F1F79E0129503F4FF9019183808375
:1024300000009E0123523F4F80E090E0A0E2B1E413
:10244000F90180839183A283B3838E010F511F4FC3
:10245000CE0183529F4F20E030E04AE755E4DC0193
:102460006D917D918D919C910E947A23CB58DE4F86
:10247000688379838A839B83C557D140CB58DE4FCD
:1024800088819981AA81BB81C557D140F801808399
:102490009183A283B383CE018F519F4F20E030E020
:1024A00040E85FE3DC016D917D918D919C910E94EC
:1024B0005A2288234CF4CE018B519F4F21E030E00B
:1024C000FC0131832083A2C0CE018F519F4F20E0B9
:1024D0003FEF4FE757E4DC016D917D918D919C9129
:1024E0000E94752318160CF073C0CE0183529F4FC3
:1024F00020E030E040E251E4FC01608171818281A2
:1025000093810E947A23C758DE4F688379838A8338
:102510009B83C957D140C758DE4F88819981AA81D2
:10252000BB81C957D140CB5CDE4F88839983AA8396
:10253000BB83C553D1408E010B511F4FCB5CDE4F87
:10254000688179818A819B81C553D1400E94D122C3
:10255000C358DE4F688379838A839B83CD57D140EC
:10256000C358DE4FE881F981CD57D140D801ED93B2
:10257000FC9325C0CE0189519F4F20E931E0DC0159
:102580002D933C93CE0189519F4FFC018081918115
:102590000197F1F79E0129513F4FD9018D939C93EB
:1025A0000000CE018B519F4F9E012B513F4FF901EF
:1025B0002081318121503109DC012D933C93CE01E2
:1025C0008B519F4FFC0180819181892B99F639C0F5
:1025D0008E010B511F4FCE018F519F4FDC016D912A
:1025E0007D918D919C910E94D122CF57DE4F6883BF
:1025F00079838A839B83C158D140CF57DE4F88812E
:102600009981C158D140F80191838083CE018751CF
:102610009F4F9E012B513F4FD9012D913C91FC01C1
:1026200031832083CE0187519F4FDC018D919C9196
:102630000197F1F79E0127513F4FF9019183808364
:1026400000000E94E0000E94020180E30E944D060B
:102650009E0121533F4F80E090E0A0ECB0E4F901EF
:1026600080839183A283B3838E010D521F4FCE01CD
:1026700081539F4F20E030E04AE755E4DC016D9143
:102680007D918D919C910E947A23CB57DE4F688378
:1026900079838A839B83C558D140CB57DE4F88818D
:1026A0009981AA81BB81C558D140F801808391836B
:1026B000A283B383CE018D529F4F20E030E040E8EB
:1026C0005FE3DC016D917D918D919C910E945A2276
:1026D00088234CF4CE0189529F4F21E030E0FC0169
:1026E00031832083A2C0CE018D529F4F20E03FEF67
:1026F0004FE757E4DC016D917D918D919C910E9493
:10270000752318160CF073C0CE0181539F4F20E043
:1027100030E040E251E4FC0160817181828193816B
:102720000E947A23C757DE4F688379838A839B830D
:10273000C958D140C757DE4F88819981AA81BB8192
:10274000C958D140CF5CDE4F88839983AA83BB836D
:10275000C153D1408E0109521F4FCF5CDE4F6881BB
:1027600079818A819B81C153D1400E94D122C35774
:10277000DE4F688379838A839B83CD58D140C357CA
:10278000DE4FE881F981CD58D140D801ED93FC931B
:1027900025C0CE0187529F4F20E931E0DC012D9307
:1027A0003C93CE0187529F4FFC018081918101971C
:1027B000F1F79E0127523F4FD9018D939C93000062
:1027C000CE0189529F4F9E0129523F4FF90120812E
:1027D000318121503109DC012D933C93CE01895286
:1027E0009F4FFC0180819181892B99F639C08E0120
:1027F00009521F4FCE018D529F4FDC016D917D918B
:102800008D919C910E94D122CF56DE4F68837983AF
:102810008A839B83C159D140CF56DE4F88819981ED
:10282000C159D140F80191838083CE0185529F4FD9
:102830009E0129523F4FD9012D913C91FC013183DA
:102840002083CE0185529F4FDC018D919C91019791
:10285000F1F79E0125523F4FF901918380830000DB
:1028600080E30E944D069E0121553F4F80E090E09D
:10287000A6E1B3E4F90180839183A283B3838E013F
:102880000D541F4FCE0181559F4F2BEA3AEA4AEA79
:1028900050E4DC016D917D918D919C910E947A2391
:1028A000CB56DE4F688379838A839B83C559D14099
:1028B000CB56DE4F88819981AA81BB81C559D14011
:1028C000F80180839183A283B3838E0109541F4F43
:1028D000CE0181559F4F20E030E040E850E4DC011C
:1028E0006D917D918D919C910E947A23C756DE4F08
:1028F000688379838A839B83C959D140C756DE4F49
:1029000088819981AA81BB81C959D140F80180830E
:102910009183A283B383CE018D549F4F20E030E09A
:1029200040E85FE3DC016D917D918D919C910E9467
:102930005A2288233CF4CE0185549F4F21E0FC01AC
:10294000208399C1CE0189549F4F20E03FEF4FE78C
:1029500057E4DC016D917D918D919C910E947523CE
:1029600018160CF022C1CE0181559F4F20E030E0B7
:102970004AE754E4FC0160817181828193810E9465
:102980005F22C356DE4F688379838A839B83CD5948
:10299000D140C356DE4F88819981AA81BB81CD5930
:1029A000D1409E0124543F4FF90180839183A2833B
:1029B000B3838E0100541F4FCE0184549F4F20E0FB
:1029C00030E04AE755E4DC016D917D918D919C9159
:1029D0000E947A23CF55DE4F688379838A839B8355
:1029E000C15AD140CF55DE4F88819981AA81BB81E0
:1029F000C15AD140F80180839183A283B383CE0171
:102A000080549F4F20E030E040E85FE3DC016D91AF
:102A10007D918D919C910E945A2288234CF4CE0185
:102A20008C539F4F21E030E0FC0131832083A2C012
:102A3000CE0180549F4F20E03FEF4FE757E4DC0189
:102A40006D917D918D919C910E94752318160CF0CB
:102A500073C0CE0184549F4F20E030E040E251E447
:102A6000FC0160817181828193810E947A23CB5520
:102A7000DE4F688379838A839B83C55AD140CB55C7
:102A8000DE4F88819981AA81BB81C55AD140C35D3F
:102A9000DE4F88839983AA83BB83CD52D1408E01B8
:102AA0000C531F4FC35DDE4F688179818A819B8102
:102AB000CD52D1400E94D122C755DE4F6883798321
:102AC0008A839B83C95AD140C755DE4FE881F9817B
:102AD000C95AD140D801ED93FC9325C0CE018A5349
:102AE0009F4F20E931E0DC012D933C93CE018A53C6
:102AF0009F4FFC01808191810197F1F79E012A533C
:102B00003F4FD9018D939C930000CE018C539F4F72
:102B10009E012C533F4FF901208131812150310911
:102B2000DC012D933C93CE018C539F4FFC0180819F
:102B30009181892B99F69FC08E010C531F4FCE01B6
:102B400080549F4FDC016D917D918D919C910E94ED
:102B5000D122C355DE4F688379838A839B83CD5A04
:102B6000D140C355DE4F88819981CD5AD140F801BB
:102B700091838083CE0188539F4F9E012C533F4FFA
:102B8000D9012D913C91FC0131832083CE018853E2
:102B90009F4FDC018D919C910197F1F79E01285385
:102BA0003F4FF9019183808366C0CE018D549F4FC2
:102BB00020E030E04FE753E4DC016D917D918D9191
:102BC0009C910E9475231816D4F58E0106531F4F51
:102BD000CE0189549F4FFC01608171818281938174
:102BE0000E94D122CF54DE4F688379838A839B83EE
:102BF000C15BD140CF54DE4FE881F981C15BD14048
:102C0000D801ED93FC93CE0184539F4F9E01265330
:102C10003F4FD9012D913C91FC0131832083CE019E
:102C200084539F4FDC018D919C910197F1F79E0198
:102C300024533F4FF90191838083000034C08E01FB
:102C400005541F4FCE018D549F4FDC016D917D9136
:102C50008D919C910E94D122CB54DE4F6883798361
:102C60008A839B83C55BD140CB54DE4F8881C55B93
:102C7000D140F8018083CE0182539F4F9E0125549D
:102C80003F4FD9012C91FC012083CE0182539F4FED
:102C9000DC018C91282F2A95F1F7CE0182539F4FAA
:102CA000FC012083000080E30E944D069E01215715
:102CB0003F4F80E090E0A6E1B3E4F9018083918387
:102CC000A283B3838E010D561F4FCE0181579F4FB4
:102CD0002BEA3AEA4AEA50E4DC016D917D918D914C
:102CE0009C910E947A23C754DE4F688379838A833C
:102CF0009B83C95BD140C754DE4F88819981AA81EB
:102D0000BB81C95BD140F80180839183A283B383E7
:102D10008E0109561F4FCE0181579F4F20E030E0B2
:102D200040E850E4DC016D917D918D919C910E9471
:102D30007A23C354DE4F688379838A839B83CD5B78
:102D4000D140C354DE4F88819981AA81BB81CD5B7C
:102D5000D140F80180839183A283B383CE018D5645
:102D60009F4F20E030E040E85FE3DC016D917D9112
:102D70008D919C910E945A2288233CF4CE01855665
:102D80009F4F21E0FC01208399C1CE0189569F4FBE
:102D900020E03FEF4FE757E4DC016D917D918D918D
:102DA0009C910E94752318160CF022C1CE01815708
:102DB0009F4F20E030E04AE754E4FC0160817181DC
:102DC000828193810E945F22CF53DE4F6883798393
:102DD0008A839B83C15CD140CF53DE4F8881998128
:102DE000AA81BB81C15CD1409E0124563F4FF901AD
:102DF00080839183A283B3838E0100561F4FCE013F
:102E000084569F4F20E030E04AE755E4DC016D91A5
:102E10007D918D919C910E947A23CB53DE4F6883E4
:102E200079838A839B83C55CD140CB53DE4F8881F5
:102E30009981AA81BB81C55CD140F80180839183CF
:102E4000A283B383CE0180569F4F20E030E040E85C
:102E50005FE3DC016D917D918D919C910E945A22DE
:102E600088234CF4CE018C559F4F21E030E0FC01CB
:102E700031832083A2C0CE0180569F4F20E03FEFD8
:102E80004FE757E4DC016D917D918D919C910E94FB
:102E9000752318160CF073C0CE0184569F4F20E0A6
:102EA00030E040E251E4FC016081718182819381D4
:102EB0000E947A23C753DE4F688379838A839B837A
:102EC000C95CD140C753DE4F88819981AA81BB81FB
:102ED000C95CD140C75DDE4F88839983AA83BB83D9
:102EE000C952D1408E010C551F4FC75DDE4F68811E
:102EF00079818A819B81C952D1400E94D122C353DA
:102F0000DE4F688379838A839B83CD5CD140C35332
:102F1000DE4FE881F981CD5CD140D801ED93FC937F
:102F200025C0CE018A559F4F20E931E0DC012D9369
:102F30003C93CE018A559F4FFC018081918101977E
:102F4000F1F79E012A553F4FD9018D939C930000C4
:102F5000CE018C559F4F9E012C553F4FF90120818A
:102F6000318121503109DC012D933C93CE018C55E8
:102F70009F4FFC0180819181892B99F69FC08E0122
:102F80000C551F4FCE0180569F4FDC016D917D91F6
:102F90008D919C910E94D122CF52DE4F688379831C
:102FA0008A839B83C15DD140CF52DE4F8881998156
:102FB000C15DD140F80191838083CE0188559F4F38
:102FC0009E012C553F4FD9012D913C91FC0131833D
:102FD0002083CE0188559F4FDC018D919C910197F4
:102FE000F1F79E0128553F4FF9019183808366C018
:102FF000CE018D569F4F20E030E04FE753E4DC01D7
:103000006D917D918D919C910E9475231816D4F538
:103010008E0106551F4FCE0189569F4FFC016081DE
:103020007181828193810E94D122CB52DE4F6883CD
:1030300079838A839B83C55DD140CB52DE4FE88183
:10304000F981C55DD140D801ED93FC93CE01845543
:103050009F4F9E0126553F4FD9012D913C91FC0178
:1030600031832083CE0184559F4FDC018D919C914B
:103070000197F1F79E0124553F4FF9019183808319
:10308000000034C08E0105561F4FCE018D569F4F54
:10309000DC016D917D918D919C910E94D122C7524E
:1030A000DE4F688379838A839B83C95DD140C75291
:1030B000DE4F8881C95DD140F8018083CE01825501
:1030C0009F4F9E0125563F4FD9012C91FC01208333
:1030D000CE0182559F4FDC018C91282F2A95F1F764
:1030E000CE0182559F4FFC012083000080E20E94A8
:1030F0004D060E94240188E20E94CA0E9E012159B9
:103100003F4F80E090E0A8E4B2E4F901808391832E
:10311000A283B3838E010D581F4FCE0181599F4F5B
:103120002BEA3AEA4AEA50E4DC016D917D918D91F7
:103130009C910E947A23C352DE4F688379838A83ED
:103140009B83CD5DD140C352DE4F88819981AA8196
:10315000BB81CD5DD140F80180839183A283B3838D
:103160008E0109581F4FCE0181599F4F20E030E05A
:1031700040E850E4DC016D917D918D919C910E941D
:103180007A23CF51DE4F688379838A839B83C15E24
:10319000D140CF51DE4F88819981AA81BB81C15E28
:1031A000D140F80180839183A283B383CE018D58EF
:1031B0009F4F20E030E040E85FE3DC016D917D91BE
:1031C0008D919C910E945A2288233CF4CE0185580F
:1031D0009F4F21E0FC01208399C1CE0189589F4F68
:1031E00020E03FEF4FE757E4DC016D917D918D9139
:1031F0009C910E94752318160CF022C1CE018159B2
:103200009F4F20E030E04AE754E4FC016081718187
:10321000828193810E945F22CB51DE4F6883798344
:103220008A839B83C55ED140CB51DE4F88819981D3
:10323000AA81BB81C55ED1409E0124583F4FF90150
:1032400080839183A283B3838E0100581F4FCE01E8
:1032500084589F4F20E030E04AE755E4DC016D914F
:103260007D918D919C910E947A23C751DE4F688396
:1032700079838A839B83C95ED140C751DE4F8881A1
:103280009981AA81BB81C95ED140F8018083918375
:10329000A283B383CE0180589F4F20E030E040E806
:1032A0005FE3DC016D917D918D919C910E945A228A
:1032B00088234CF4CE018C579F4F21E030E0FC0175
:1032C00031832083A2C0CE0180589F4F20E03FEF82
:1032D0004FE757E4DC016D917D918D919C910E94A7
:1032E000752318160CF073C0CE0184589F4F20E050
:1032F00030E040E251E4FC01608171818281938180
:103300000E947A23C351DE4F688379838A839B832B
:10331000CD5ED140C351DE4F88819981AA81BB81A6
:10332000CD5ED140CB5DDE4F88839983AA83BB837A
:10333000C552D1408E010C571F4FCB5DDE4F6881C7
:1033400079818A819B81C552D1400E94D122CF5080
:10335000DE4F688379838A839B83C15FD140CF50DE
:10336000DE4FE881F981C15FD140D801ED93FC9334
:1033700025C0CE018A579F4F20E931E0DC012D9313
:103380003C93CE018A579F4FFC0180819181019728
:10339000F1F79E012A573F4FD9018D939C9300006E
:1033A000CE018C579F4F9E012C573F4FF901208132
:1033B000318121503109DC012D933C93CE018C5792
:1033C0009F4FFC0180819181892B99F69FC08E01CE
:1033D0000C571F4FCE0180589F4FDC016D917D919E
:1033E0008D919C910E94D122CB50DE4F68837983CE
:1033F0008A839B83C55FD140CB50DE4F8881998102
:10340000C55FD140F80191838083CE0188579F4FDB
:103410009E012C573F4FD9012D913C91FC013183E6
:103420002083CE0188579F4FDC018D919C9101979D
:10343000F1F79E0128573F4FF9019183808366C0C1
:10344000CE018D589F4F20E030E04FE753E4DC0180
:103450006D917D918D919C910E9475231816D4F5E4
:103460008E0106571F4FCE0189589F4FFC01608186
:103470007181828193810E94D122C750DE4F68837F
:1034800079838A839B83C95FD140C750DE4FE8812F
:10349000F981C95FD140D801ED93FC93CE018457E7
:1034A0009F4F9E0126573F4FD9012D913C91FC0122
:1034B00031832083CE0184579F4FDC018D919C91F5
:1034C0000197F1F79E0124573F4FF90191838083C3
:1034D000000034C08E0105581F4FCE018D589F4FFC
:1034E000DC016D917D918D919C910E94D122C35000
:1034F000DE4F688379838A839B83CD5FD140C3503D
:10350000DE4F8881CD5FD140F8018083CE018257A4
:103510009F4F9E0125583F4FD9012C91FC012083DC
:10352000CE0182579F4FDC018C91282F2A95F1F70D
:10353000CE0182579F4FFC012083000088E00E944B
:10354000CA0E9E01215B3F4F80E090E0A8E4B2E408
:10355000F90180839183A283B3838E010D5A1F4F9B
:10356000CE01815B9F4F2BEA3AEA4AEA50E4DC0144
:103570006D917D918D919C910E947A23CF5FDD4F5B
:10358000688379838A839B83C150D240CF5FDD4FAC
:1035900088819981AA81BB81C150D240F801808382
:1035A0009183A283B3838E01095A1F4FCE01815BA1
:1035B0009F4F20E030E040E850E4DC016D917D91C8
:1035C0008D919C910E947A23CB5FDD4F6883798334
:1035D0008A839B83C550D240CB5FDD4F8881998120
:1035E000AA81BB81C550D240F80180839183A28318
:1035F000B383CE018D5A9F4F20E030E040E85FE377
:10360000DC016D917D918D919C910E945A228823BD
:103610003CF4CE01855A9F4F21E0FC01208399C1E3
:10362000CE01895A9F4F20E03FEF4FE757E4DC017E
:103630006D917D918D919C910E94752318160CF0CF
:1036400022C1CE01815B9F4F20E030E04AE754E485
:10365000FC0160817181828193810E945F22C75F3A
:10366000DD4F688379838A839B83C950D240C75FCB
:10367000DD4F88819981AA81BB81C950D2409E01CA
:10368000245A3F4FF90180839183A283B3838E0133
:10369000005A1F4FCE01845A9F4F20E030E04AE786
:1036A00055E4DC016D917D918D919C910E947A236E
:1036B000C35FDD4F688379838A839B83CD50D2407B
:1036C000C35FDD4F88819981AA81BB81CD50D240F3
:1036D000F80180839183A283B383CE01805A9F4FE8
:1036E00020E030E040E85FE3DC016D917D918D9159
:1036F0009C910E945A2288234CF4CE018C599F4FF2
:1037000021E030E0FC0131832083A2C0CE01805A49
:103710009F4F20E03FEF4FE757E4DC016D917D9133
:103720008D919C910E94752318160CF073C0CE01E8
:10373000845A9F4F20E030E040E251E4FC01608178
:103740007181828193810E947A23CF5EDD4F6883ED
:1037500079838A839B83C151D240CF5EDD4F8881BC
:103760009981AA81BB81C151D240CF5DDE4F888350
:103770009983AA83BB83C152D1408E010C591F4F3C
:10378000CF5DDE4F688179818A819B81C152D140B2
:103790000E94D122CB5EDD4F688379838A839B832D
:1037A000C551D240CB5EDD4FE881F981C551D24091
:1037B000D801ED93FC9325C0CE018A599F4F20E993
:1037C00031E0DC012D933C93CE018A599F4FFC01DF
:1037D000808191810197F1F79E012A593F4FD901CC
:1037E0008D939C930000CE018C599F4F9E012C59C4
:1037F0003F4FF9012081318121503109DC012D93A6
:103800003C93CE018C599F4FFC0180819181892B83
:1038100099F69FC08E010C591F4FCE01805A9F4FC1
:10382000DC016D917D918D919C910E94D122C75EAA
:10383000DD4F688379838A839B83C951D240C75EF9
:10384000DD4F88819981C951D240F80191838083ED
:10385000CE0188599F4F9E012C593F4FD9012D9180
:103860003C91FC0131832083CE0188599F4FDC01BC
:103870008D919C910197F1F79E0128593F4FF901D5
:103880009183808366C0CE018D5A9F4F20E030E047
:103890004FE753E4DC016D917D918D919C910E94E5
:1038A00075231816D4F58E0106591F4FCE01895A7B
:1038B0009F4FFC0160817181828193810E94D1229E
:1038C000C35EDD4F688379838A839B83CD51D24069
:1038D000C35EDD4FE881F981CD51D240D801ED932F
:1038E000FC93CE0184599F4F9E0126593F4FD90129
:1038F0002D913C91FC0131832083CE0184599F4F4F
:10390000DC018D919C910197F1F79E0124593F4F65
:10391000F90191838083000034C08E01055A1F4F46
:10392000CE018D5A9F4FDC016D917D918D919C91BF
:103930000E94D122CF5DDD4F688379838A839B8388
:10394000C152D240CF5DDD4F8881C152D240F801D3
:103950008083CE0182599F4F9E01255A3F4FD90146
:103960002C91FC012083CE0182599F4FDC018C9168
:10397000282F2A95F1F7CE0182599F4FFC01208311
:10398000000081E00E94CA0E9E012F5B3F4F80E045
:1039900090E0A0E0B0E4F90180839183A283B38337
:1039A0008E010B5B1F4FCE018F5B9F4F20E030E0FD
:1039B0004AE755E4DC016D917D918D919C910E94C7
:1039C0007A23CB5DDD4F688379838A839B83C552DD
:1039D000D240CB5DDD4F88819981AA81BB81C552E0
:1039E000D240F80180839183A283B383CE018B5BA5
:1039F0009F4F20E030E040E85FE3DC016D917D9176
:103A00008D919C910E945A2288234CF4CE01875BB1
:103A10009F4F21E030E0FC0131832083A2C0CE0122
:103A20008B5B9F4F20E03FEF4FE757E4DC016D9148
:103A30007D918D919C910E94752318160CF073C096
:103A4000CE018F5B9F4F20E030E040E251E4FC016B
:103A500060817181828193810E947A23C75DDD4FED
:103A6000688379838A839B83C952D240C75DDD4FC7
:103A700088819981AA81BB81C952D240C35EDE4F41
:103A800088839983AA83BB83CD51D1408E01075B84
:103A90001F4FC35EDE4F688179818A819B81CD5142
:103AA000D1400E94D122C35DDD4F688379838A8330
:103AB0009B83CD52D240C35DDD4FE881F981CD5269
:103AC000D240D801ED93FC9325C0CE01855B9F4F7A
:103AD00020E931E0DC012D933C93CE01855B9F4FC3
:103AE000FC01808191810197F1F79E01255B3F4F99
:103AF000D9018D939C930000CE01875B9F4F9E015F
:103B0000275B3F4FF9012081318121503109DC01D0
:103B10002D933C93CE01875B9F4FFC018081918167
:103B2000892B99F639C08E01075B1F4FCE018B5B45
:103B30009F4FDC016D917D918D919C910E94D122CE
:103B4000CF5CDD4F688379838A839B83C153D240E6
:103B5000CF5CDD4F88819981C153D240F8019183B8
:103B60008083CE01835B9F4F9E01275B3F4FD9012E
:103B70002D913C91FC0131832083CE01835B9F4FCB
:103B8000DC018D919C910197F1F79E01235B3F4FE2
:103B9000F90191838083000086E00E94CA0E80E0D4
:103BA00090E0A8E4B2E489A39AA3ABA3BCA32BEA58
:103BB0003AEA4AEA50E469A17AA18BA19CA10E9449
:103BC0007A23CB5CDD4F688379838A839B83C553DB
:103BD000D240CB5CDD4F88819981AA81BB81C553DE
:103BE000D2408DA39EA3AFA3B8A720E030E040E869
:103BF00050E469A17AA18BA19CA10E947A23C75CA1
:103C0000DD4F688379838A839B83C953D240C75C25
:103C1000DD4F88819981AA81BB81C953D24089A790
:103C20009AA7ABA7BCA720E030E040E85FE36DA116
:103C30007EA18FA198A50E945A2288231CF481E0BE
:103C40008DA71CC120E03FEF4FE757E469A57AA597
:103C50008BA59CA50E94752318160CF0CDC020E002
:103C600030E04AE754E469A17AA18BA19CA10E94AB
:103C70005F22C35CDD4F688379838A839B83CD5346
:103C8000D240C35CDD4F88819981AA81BB81CD532D
:103C9000D2408EA79FA7A8ABB9AB20E030E04AE79F
:103CA00055E46EA57FA588A999A90E947A23CF5BC8
:103CB000DD4F688379838A839B83C154D240CF5B75
:103CC000DD4F88819981AA81BB81C154D2408AABE2
:103CD0009BABACABBDAB20E030E040E85FE36AA952
:103CE0007BA98CA99DA90E945A2288232CF481E0EB
:103CF00090E09FAB8EAB75C020E03FEF4FE757E4FD
:103D00006AA97BA98CA99DA90E94752318160CF09D
:103D100052C020E030E040E251E46EA57FA588A9C2
:103D200099A90E947A23CB5BDD4F688379838A83CC
:103D30009B83C554D240CB5BDD4F88819981AA819A
:103D4000BB81C554D240C75EDE4F88839983AA8366
:103D5000BB83C951D140C75EDE4F688179818A81BA
:103D60009B81C951D1400E94D122C75BDD4F68833E
:103D700079838A839B83C954D240C75BDD4FA88176
:103D8000B981C954D240BFABAEAB10C080E991E05D
:103D900099AF88AF88AD99AD0197F1F799AF88AF2A
:103DA00000008EA99FA901979FAB8EAB8EA99FA9FA
:103DB000892B61F763C06AA97BA98CA99DA90E9480
:103DC000D122C35BDD4F688379838A839B83CD5483
:103DD000D240C35BDD4FE881F981CD54D240FFABC7
:103DE000EEAB8EA99FA99BAF8AAF8AAD9BAD019721
:103DF000F1F79BAF8AAF42C020E030E04FE753E4D9
:103E00006DA17EA18FA198A50E947523181614F5A7
:103E100069A57AA58BA59CA50E94D122CF5ADD4F1A
:103E2000688379838A839B83C155D240CF5ADD4F03
:103E300088819981C155D2409DAF8CAF8CAD9DAD2D
:103E40009FAF8EAF8EAD9FAD0197F1F79FAF8EAF55
:103E5000000028C06DA17EA18FA198A50E94D1224B
:103E6000CB5ADD4F688379838A839B83C555D240C3
:103E7000CB5ADD4F9881C555D2409DA72DA5CE01C7
:103E8000805C9F4FDC012C93CE01805C9F4FFC0136
:103E90008081282F2A95F1F7CE01805C9F4FDC01AD
:103EA0002C9300008CE00E94CA0E80E090E0A8E411
:103EB000B2E489839A83AB83BC832BEA3AEA4AEA69
:103EC00050E469817A818B819C810E947A23C75A50
:103ED000DD4F688379838A839B83C955D240C75A53
:103EE000DD4F88819981AA81BB81C955D2408D83DC
:103EF0009E83AF83B88720E030E040E850E46981DA
:103F00007A818B819C810E947A23C35ADD4F68831A
:103F100079838A839B83CD55D240C35ADD4F8881F4
:103F20009981AA81BB81CD55D24089879A87AB8779
:103F3000BC8720E030E040E85FE36D817E818F81C7
:103F400098850E945A2288231CF481E08D871CC129
:103F500020E03FEF4FE757E469857A858B859C85A4
:103F60000E94752318160CF0CDC020E030E04AE71F
:103F700054E469817A818B819C810E945F22CF59B0
:103F8000DD4F688379838A839B83C156D240CF59A2
:103F9000DD4F88819981AA81BB81C156D2408E872D
:103FA0009F87A88BB98B20E030E04AE755E46E8507
:103FB0007F85888999890E947A23CB59DD4F688350
:103FC00079838A839B83C556D240CB59DD4F888144
:103FD0009981AA81BB81C556D2408A8B9B8BAC8BC1
:103FE000BD8B20E030E040E85FE36A897B898C8903
:103FF0009D890E945A2288232CF481E090E09F8BB7
:104000008E8B75C020E03FEF4FE757E46A897B89CC
:104010008C899D890E94752318160CF052C020E0EF
:1040200030E040E251E46E857F85888999890E945D
:104030007A23C759DD4F688379838A839B83C95666
:10404000D240C759DD4F88819981AA81BB81C95669
:10405000D240CB5EDE4F88839983AA83BB83C55150
:10406000D140CB5EDE4F688179818A819B81C551C9
:10407000D1400E94D122C359DD4F688379838A835E
:104080009B83CD56D240C359DD4FA881B981CD560F
:10409000D240BF8BAE8B10C080E991E0998F888FA2
:1040A000888D998D0197F1F7998F888F00008E89FF
:1040B0009F8901979F8B8E8B8E899F89892B61F7B2
:1040C00063C06A897B898C899D890E94D122CF58DF
:1040D000DD4F688379838A839B83C157D240CF5851
:1040E000DD4FE881F981C157D240FF8BEE8B8E897D
:1040F0009F899B8F8A8F8A8D9B8D0197F1F79B8F6C
:104100008A8F42C020E030E04FE753E46D817E812A
:104110008F8198850E947523181614F569857A8514
:104120008B859C850E94D122CB58DD4F6883798393
:104130008A839B83C557D240CB58DD4F88819981B4
:10414000C557D2409D8F8C8F8C8D9D8D9F8F8E8F6C
:104150008E8D9F8D0197F1F79F8F8E8F00001BC072
:104160006D817E818F8198850E94D122C758DD4F55
:10417000688379838A839B83C957D240C758DD4FB0
:104180009881C957D2409D878D8588A388A18A953B
:10419000F1F788A300000000C458DD4F0FB6F89473
:1041A000DEBF0FBECDBFDF91CF911F910F9108955C
:1041B000CF93DF9300D0CDB7DEB79A8389830BC04E
:1041C00089819A81FC0180810E94DE0E89819A8119
:1041D00001969A83898389819A81FC018081882351
:1041E00079F7000000000F900F90DF91CF910895B4
:1041F000CF93DF9300D000D000D0CDB7DEB79E8341
:104200008D838D819E819A83898389819A81FC0126
:1042100084918B838B818C838C81882349F08C8162
:104220000E94DE0E8D819E8101969E838D83E9CF53
:104230000000000026960FB6F894DEBF0FBECDBF7B
:10424000DF91CF910895CF93DF9300D00F92CDB738
:10425000DEB78A836B8380E889838B81823014F098
:1042600081E08B838B81882321F48A818058898324
:1042700014C08B81813021F48A81805489830DC0E0
:104280008B81823021F48A818C56898306C08B8190
:10429000833019F48A818C52898389810E94CA0EE5
:1042A00000000F900F900F90DF91CF910895CF9362
:1042B000DF9300D000D0CDB7DEB79C838B8319820B
:1042C0008B819C810E94F6238A838A81803160F4ED
:1042D0008A81882F90E020E130E0A901481B590B2A
:1042E000CA0195958795898389810F900F900F90CA
:1042F0000F90DF91CF910895CF93DF9300D00F926D
:10430000CDB7DEB79A8389836B838B818F3F29F486
:1043100089819A810E94572101C080E00F900F90FF
:104320000F90DF91CF910895CF93DF93CDB7DEB794
:1043300028970FB6F894DEBF0FBECDBF9D838C8348
:104340007F836E8348878C819D814096FC0110821B
:104350008FE089830EC08981082E000C990B2C8177
:104360003D81820F931F20E2FC01208389818150CF
:104370008983898188237CF78885882334F48E811A
:104380009F816FEF0E947C2188878E819F810E9490
:10439000F623982F8885890F8A838A81813114F0CA
:1043A00080E18A831B82888589831AC08B81082ECD
:1043B000000C990B2E813F81280F391F8981082E0F
:1043C000000C990B4C815D81840F951FF9012081B0
:1043D000FC01208389818F5F89838B818F5F8B8331
:1043E00099818A81981714F30000000028960FB66F
:1043F000F894DEBF0FBECDBFDF91CF910895CF936C
:10440000DF93CDB7DEB766970FB6F894DEBF0FBE69
:10441000CDBF9B8B8A8B7D8B6C8B4E8B8C899D89C2
:1044200041E150E0BC01CE0101960E94E723198AC8
:104430008A899B894E899E012F5F3F4FB9010E9457
:104440009421000066960FB6F894DEBF0FBECDBF74
:10445000DF91CF910895CF93DF9300D0CDB7DEB732
:104460009A83898389819A810D962EE2FC012083AB
:1044700089819A810E962EE2FC01208389819A819E
:104480000F962EE2FC01208389819A814096FC01DF
:10449000108200000F900F90DF91CF910895CF937D
:1044A000DF93CDB7DEB70E94F20E80E690E00E9467
:1044B000D820FFCF0E94002308F481E008950E94D5
:1044C00073220C943B230E94342358F00E942D2326
:1044D00040F029F45F3F29F00C94242351110C94EF
:1044E0006F230C942A230E944C2368F39923B1F381
:1044F000552391F3951B550BBB27AA27621773070A
:10450000840738F09F5F5F4F220F331F441FAA1F9D
:10451000A9F335D00E2E3AF0E0E832D09150504059
:10452000E695001CCAF72BD0FE2F29D0660F771F07
:10453000881FBB1F261737074807AB07B0E809F0ED
:10454000BB0B802DBF01FF2793585F4F3AF09E3F72
:10455000510578F00C9424230C946F235F3FE4F30F
:10456000983ED4F3869577956795B795F7959F5FB5
:10457000C9F7880F911D9695879597F90895E1E001
:10458000660F771F881FBB1F621773078407BA0760
:1045900020F0621B730B840BBA0BEE1F88F7E095BB
:1045A00008950E94542388F09F5798F0B92F9927B7
:1045B000B751B0F0E1F0660F771F881F991F1AF00E
:1045C000BA95C9F714C0B13091F00E946E23B1E0E2
:1045D00008950C946E23672F782F8827B85F39F0E1
:1045E000B93FCCF3869577956795B395D9F73EF4A7
:1045F00090958095709561957F4F8F4F9F4F08954F
:10460000990F0008550FAA0BE0E8FEEF16161706E3
:10461000E807F907C0F012161306E407F50798F04B
:10462000621B730B840B950B39F40A2661F0232B64
:10463000242B252B21F408950A2609F4A140A695E0
:104640008FEF811D811D089597F99F6780E870E0C5
:1046500060E008959FEF80EC089500240A941616F8
:10466000170618060906089500240A941216130660
:10467000140605060895092E0394000C11F48823EE
:1046800052F0BB0F40F4BF2B11F460FF04C06F5F0A
:104690007F4F8F4F9F4F089557FD9058440F551FE0
:1046A00059F05F3F71F04795880F97FB991F61F0B4
:1046B0009F3F79F087950895121613061406551F2B
:1046C000F2CF4695F1DF08C0161617061806991F97
:1046D000F1CF86957105610508940895E894BB278C
:1046E00066277727CB0197F908950E94002308F4E5
:1046F0008FEF08950E948D230C943B230E942D235D
:1047000038F00E94342320F0952311F00C942423D8
:104710000C942A2311240C946F230E944C2370F3D1
:10472000959FC1F3950F50E0551F629FF001729F56
:10473000BB27F00DB11D639FAA27F00DB11DAA1F65
:10474000649F6627B00DA11D661F829F2227B00DB2
:10475000A11D621F739FB00DA11D621F839FA00D3D
:10476000611D221F749F3327A00D611D231F849F8D
:10477000600D211D822F762F6A2F11249F575040E4
:104780009AF0F1F088234AF0EE0FFF1FBB1F661F5F
:10479000771F881F91505040A9F79E3F510580F028
:1047A0000C9424230C946F235F3FE4F3983ED4F3DE
:1047B000869577956795B795F795E7959F5FC1F7CC
:1047C000FE2B880F911D9695879597F90895FB010B
:1047D000DC014150504048F005900D920020C9F78F
:1047E00001C01D9241505040E0F70895FC01019036
:1047F0000020E9F7809590958E0F9F1F0895F894FB
:02480000FFCFE8
:06480200686F6C6100000C
:00000001FF
